{
  "_format": "hh-sol-artifact-1",
  "contractName": "Review",
  "sourceName": "contracts/Review.sol",
  "abi": [
    {
      "inputs": [
        {
          "internalType": "address",
          "name": "semaphoreAddress",
          "type": "address"
        }
      ],
      "stateMutability": "nonpayable",
      "type": "constructor"
    },
    {
      "inputs": [],
      "name": "getPosts",
      "outputs": [
        {
          "internalType": "uint256[]",
          "name": "",
          "type": "uint256[]"
        }
      ],
      "stateMutability": "view",
      "type": "function"
    },
    {
      "inputs": [
        {
          "internalType": "uint256",
          "name": "identityCommitment",
          "type": "uint256"
        },
        {
          "internalType": "uint256",
          "name": "r",
          "type": "uint256"
        },
        {
          "internalType": "uint256",
          "name": "s",
          "type": "uint256"
        },
        {
          "internalType": "uint256",
          "name": "x",
          "type": "uint256"
        },
        {
          "internalType": "uint256",
          "name": "y",
          "type": "uint256"
        }
      ],
      "name": "joinReviewerGroup",
      "outputs": [],
      "stateMutability": "nonpayable",
      "type": "function"
    },
    {
      "inputs": [],
      "name": "reviewerGroupId",
      "outputs": [
        {
          "internalType": "uint256",
          "name": "",
          "type": "uint256"
        }
      ],
      "stateMutability": "view",
      "type": "function"
    },
    {
      "inputs": [],
      "name": "semaphore",
      "outputs": [
        {
          "internalType": "contract ISemaphore",
          "name": "",
          "type": "address"
        }
      ],
      "stateMutability": "view",
      "type": "function"
    },
    {
      "inputs": [
        {
          "internalType": "uint256",
          "name": "merkleTreeDepth",
          "type": "uint256"
        },
        {
          "internalType": "uint256",
          "name": "merkleTreeRoot",
          "type": "uint256"
        },
        {
          "internalType": "uint256",
          "name": "nullifier",
          "type": "uint256"
        },
        {
          "internalType": "uint256",
          "name": "review",
          "type": "uint256"
        },
        {
          "internalType": "uint256",
          "name": "reviewerId",
          "type": "uint256"
        },
        {
          "internalType": "uint256[8]",
          "name": "points",
          "type": "uint256[8]"
        }
      ],
      "name": "sendPost",
      "outputs": [],
      "stateMutability": "nonpayable",
      "type": "function"
    }
  ],
  "bytecode": "0x608060405234801561001057600080fd5b506040516109d83803806109d883398181016040528101906100329190610172565b806000806101000a81548173ffffffffffffffffffffffffffffffffffffffff021916908373ffffffffffffffffffffffffffffffffffffffff16021790555060008054906101000a900473ffffffffffffffffffffffffffffffffffffffff1673ffffffffffffffffffffffffffffffffffffffff1663575185ed6040518163ffffffff1660e01b81526004016020604051808303816000875af11580156100df573d6000803e3d6000fd5b505050506040513d601f19601f8201168201806040525081019061010391906101d5565b60018190555050610202565b600080fd5b600073ffffffffffffffffffffffffffffffffffffffff82169050919050565b600061013f82610114565b9050919050565b61014f81610134565b811461015a57600080fd5b50565b60008151905061016c81610146565b92915050565b6000602082840312156101885761018761010f565b5b60006101968482850161015d565b91505092915050565b6000819050919050565b6101b28161019f565b81146101bd57600080fd5b50565b6000815190506101cf816101a9565b92915050565b6000602082840312156101eb576101ea61010f565b5b60006101f9848285016101c0565b91505092915050565b6107c7806102116000396000f3fe608060405234801561001057600080fd5b50600436106100575760003560e01c80631c51333f1461005c57806341f3004a1461007857806361e3c094146100965780637b5d2534146100b4578063f6437127146100d2575b600080fd5b61007660048036038101906100719190610391565b6100ee565b005b610080610217565b60405161008d91906104dd565b60405180910390f35b61009e61026f565b6040516100ab919061050e565b60405180910390f35b6100bc610275565b6040516100c991906105a8565b60405180910390f35b6100ec60048036038101906100e791906105c3565b610299565b005b60006040518060c00160405280888152602001878152602001868152602001858152602001848152602001836008806020026040519081016040528092919082600860200280828437600081840152601f19601f820116905080830192505050505050815250905060008054906101000a900473ffffffffffffffffffffffffffffffffffffffff1673ffffffffffffffffffffffffffffffffffffffff1663d0d898dd600154836040518363ffffffff1660e01b81526004016101b392919061073e565b600060405180830381600087803b1580156101cd57600080fd5b505af11580156101e1573d6000803e3d6000fd5b50505050600284908060018154018082558091505060019003906000526020600020016000909190919091505550505050505050565b6060600280548060200260200160405190810160405280929190818152602001828054801561026557602002820191906000526020600020905b815481526020019060010190808311610251575b5050505050905090565b60015481565b60008054906101000a900473ffffffffffffffffffffffffffffffffffffffff1681565b60008054906101000a900473ffffffffffffffffffffffffffffffffffffffff1673ffffffffffffffffffffffffffffffffffffffff16631783efc3600154876040518363ffffffff1660e01b81526004016102f6929190610768565b600060405180830381600087803b15801561031057600080fd5b505af1158015610324573d6000803e3d6000fd5b505050505050505050565b600080fd5b6000819050919050565b61034781610334565b811461035257600080fd5b50565b6000813590506103648161033e565b92915050565b600080fd5b60008190508260206008028201111561038b5761038a61036a565b5b92915050565b6000806000806000806101a087890312156103af576103ae61032f565b5b60006103bd89828a01610355565b96505060206103ce89828a01610355565b95505060406103df89828a01610355565b94505060606103f089828a01610355565b935050608061040189828a01610355565b92505060a061041289828a0161036f565b9150509295509295509295565b600081519050919050565b600082825260208201905092915050565b6000819050602082019050919050565b61045481610334565b82525050565b6000610466838361044b565b60208301905092915050565b6000602082019050919050565b600061048a8261041f565b610494818561042a565b935061049f8361043b565b8060005b838110156104d05781516104b7888261045a565b97506104c283610472565b9250506001810190506104a3565b5085935050505092915050565b600060208201905081810360008301526104f7818461047f565b905092915050565b61050881610334565b82525050565b600060208201905061052360008301846104ff565b92915050565b600073ffffffffffffffffffffffffffffffffffffffff82169050919050565b6000819050919050565b600061056e61056961056484610529565b610549565b610529565b9050919050565b600061058082610553565b9050919050565b600061059282610575565b9050919050565b6105a281610587565b82525050565b60006020820190506105bd6000830184610599565b92915050565b600080600080600060a086880312156105df576105de61032f565b5b60006105ed88828901610355565b95505060206105fe88828901610355565b945050604061060f88828901610355565b935050606061062088828901610355565b925050608061063188828901610355565b9150509295509295909350565b600060089050919050565b600081905092915050565b6000819050919050565b6000602082019050919050565b6106748161063e565b61067e8184610649565b925061068982610654565b8060005b838110156106ba5781516106a1878261045a565b96506106ac8361065e565b92505060018101905061068d565b505050505050565b6101a0820160008201516106d9600085018261044b565b5060208201516106ec602085018261044b565b5060408201516106ff604085018261044b565b506060820151610712606085018261044b565b506080820151610725608085018261044b565b5060a082015161073860a085018261066b565b50505050565b60006101c08201905061075460008301856104ff565b61076160208301846106c2565b9392505050565b600060408201905061077d60008301856104ff565b61078a60208301846104ff565b939250505056fea2646970667358221220d61950a6ac4b7e1f05c5ef43c45f21a5adb2a23f9107c7fdb68fc4e09a1bdc9764736f6c63430008170033",
  "linkReferences": {},
  "deployedLinkReferences": {}
}